:100000000C9461000C947E000C947E000C947E0095
:100010000C947E000C947E000C947E000C947E0068
:100020000C947E000C947E000C947E000C947E0058
:100030000C947E000C947E000C947E000C947E0048
:100040000C94D2010C947E000C947E000C947E00E3
:100050000C947E000C947E000C947E000C947E0028
:100060000C947E000C947E00000000002400270009
:100070002A0000000000250028002B0000000000DE
:1000800023002600290004040404040404040202DA
:100090000202020203030303030301020408102007
:1000A0004080010204081020010204081020000012
:1000B0000008000201000003040700000000000027
:1000C000000011241FBECFEFD8E0DEBFCDBF11E08E
:1000D000A0E0B1E0EEEBF5E002C005900D92A63194
:1000E000B107D9F721E0A6E1B1E001C01D92A3322A
:1000F000B207E1F70E941C020C94DD020C94000090
:10010000833081F028F4813099F08230A9F008958D
:100110008730A9F08830C9F08430B1F48091800034
:100120008F7D03C0809180008F7780938000089539
:1001300084B58F7784BD089584B58F7DFBCF809182
:10014000B0008F778093B00008958091B0008F7DCC
:10015000F9CFCF93DF93282F30E0F901E255FF4F1D
:100160008491F901E656FF4FD491F901EA57FF4F08
:10017000C491CC23A1F081110E948000EC2FF0E00B
:10018000EE0FFF1FE458FF4FA591B491EC91ED23C2
:1001900081E090E009F480E0DF91CF91089580E064
:1001A00090E0FACF1F93CF93DF93282F30E0F9012F
:1001B000E255FF4F8491F901E656FF4FD491F901C2
:1001C000EA57FF4FC491CC23A9F0162F81110E944A
:1001D0008000EC2FF0E0EE0FFF1FEE58FF4FA591CF
:1001E000B4918FB7F894EC91111108C0D095DE232B
:1001F000DC938FBFDF91CF911F910895DE2BF8CF55
:10020000CF93DF9390E0FC01E656FF4F24918A578D
:100210009F4FFC0184918823D1F090E0880F991FB3
:10022000FC01E859FF4FA591B491FC01EE58FF4F36
:10023000C591D49161110EC09FB7F8948C91E22FB3
:10024000E0958E238C932881E223E8839FBFDF9182
:10025000CF9108958FB7F894EC91E22BEC938FBF78
:10026000F6CF3FB7F89480911F0190912001A091A3
:100270002101B091220126B5A89B05C02F3F19F09E
:100280000196A11DB11D3FBFBA2FA92F982F882716
:10029000BC01CD01620F711D811D911D42E0660FF1
:1002A000771F881F991F4A95D1F70895CF92DF9243
:1002B000EF92FF920E9431016B017C010E9431019B
:1002C0006C197D098E099F09683E7340810591056F
:1002D000A8F3FF90EF90DF90CF900895EF92FF92F8
:1002E0000F931F93CF93DF938091000190910101B1
:1002F0006AE070E00E94B5028B01EC019093190155
:1003000080931801709317016093160161E08AE0F1
:100310000E94D20060E089E00E94D200000F111F0D
:10032000F801EE5FFE4FE080F18002E010E0C801CE
:100330000297B70102C0759567958A95E2F76170DB
:10034000802F0E94D2000F5F1F4F0930110579F7EF
:100350000E94560160E08AE00E94D20061E089E0DC
:100360000E94D200CC0FDD1FCE5FDE4F08811981C5
:10037000C2E0D0E0CE010297B80102C07595679542
:100380008A95E2F761708C2F0E94D2002196C930C5
:10039000D10581F7DF91CF911F910F91FF90EF90E1
:1003A0000C9456011F920F920FB60F9211242F93A7
:1003B0003F938F939F93AF93BF9380911B01909135
:1003C0001C01A0911D01B0911E0130911A0123E082
:1003D000230F2D3758F50196A11DB11D20931A0149
:1003E00080931B0190931C01A0931D01B0931E01EB
:1003F00080911F0190912001A0912101B0912201D3
:100400000196A11DB11D80931F0190932001A0931F
:100410002101B0932201BF91AF919F918F913F91A4
:100420002F910F900FBE0F901F90189526E8230F65
:100430000296A11DB11DD2CF789484B5826084BD8F
:1004400084B5816084BD85B5826085BD85B58160D8
:1004500085BD80916E00816080936E001092810056
:100460008091810082608093810080918100816011
:1004700080938100809180008160809380008091D2
:10048000B10084608093B1008091B000816080935E
:10049000B00080917A00846080937A0080917A0025
:1004A000826080937A0080917A00816080937A00E4
:1004B00080917A00806880937A001092C100C2E037
:1004C00061E08C2F0E940001CF5FCB30C9F760E064
:1004D0008BE00E94000160E08CE00E940001C0E01F
:1004E000D0E003E610E08BE00E94A900892BA1F484
:1004F0008BE00E94A900892B19F40E946E01F8CFAD
:1005000080910001909101010196843691058CF44F
:1005100090930101809300018CE00E94A900019753
:10052000D1F48CE00E94A900019741F40E946E0171
:10053000F8CF1092010110920001EECF80910001DE
:1005400090910101019797FD0BC090930101809359
:1005500000010E946E01209731F20E940000C3CF7B
:100560001093010100930001F4CF97FB072E16F4BE
:10057000009407D077FD09D00E94C90207FC05D07E
:100580003EF4909581959F4F0895709561957F4FAA
:100590000895AA1BBB1B51E107C0AA1FBB1FA617CA
:1005A000B70710F0A61BB70B881F991F5A95A9F71C
:0E05B00080959095BC01CD010895F894FFCF81
:1005BE005F003F0006005B004F0066006D007D008F
:0605CE0007007F0067003A
:00000001FF
